:100000000EEF00F00000000000EF00F00000000024
:0A0010000000000000000000F3D71C
:10001C00156A166A810E176E000E186E420E196E56
:10002C00000E1A6E240E1B6E000E1C6E180E1D6E2A
:10003C00000E1E6E010E1F6E000E206E9290936AC3
:10004C008090808015C000F016C001F00036009042
:10005C000136170E0024E96E000E0120EA6EEECF79
:10006C0081FF000E201802E1010E1F180FE1154A46
:10007C00162A000E161802E1040E151806E11F6A66
:10008C00206A030E156E000E166E10D0010E155E52
:10009C00000E165AFF0E161802E1FF0E151806E197
:1000AC00010E1F6E000E206E156A166A080E0B6E7E
:1000BC001B0E0C6E270E0D6E0D2EFED70C2EFCD7C4
:1000CC000B2EFAD78090080E0B6E1B0E0C6E270EA3
:1000DC000D6E0D2EFED70C2EFCD70B2EFAD7B1D7EA
:0200EC00FFD73C
:020000040030CA
:0E000000000C1F1EFF8381FF0FC00FE00F409A
:00000001FF
