:100000000EEF00F00000000000EF00F00000000024
:0A0010000000000000000000F3D71C
:10001C00FF0E956E936A8350000A02E1816A1AD032
:10002C008350010A03E1010E816E14D08350020A41
:10003C0003E1020E816E0ED08350030A03E1030E1E
:10004C00816E08D08350040A03E1040E816E02D045
:10005C00FE0E816E020E0B6E040E0C6EBA0E0D6E41
:10006C000D2EFED70C2EFCD70B2EFAD70000D3D7B3
:02007C00FFD7AC
:020000040030CA
:0E000000000A1F1EFF8381FF0FC00FE00F409C
:00000001FF
