:100000000EEF00F00000000000EF00F00000000024
:0A0010000000000000000000F3D71C
:10001C00070E156E000E166EFF0E956E936A816AB2
:10002C0083500F0A31E1020E816E000E161802E1A8
:10003C001550831818E1060E0B6E130E0C6EAD0ED8
:10004C000D6E0D2EFED70C2EFCD70B2EFAD7000002
:10005C000000070E156E000E166E060E156E000EC5
:10006C00166E816AE2D7816A8350000A02E1816AC6
:10007C000BD08350010A03E1010E816E05D0835031
:10008C00020A02E1020E816E816A020E0B6E040EF0
:10009C000C6EBA0E0D6E0D2EFED70C2EFCD70B2E41
:0800AC00FAD70000BDD7FFD711
:020000040030CA
:0E000000000A1F1EFF8381FF0FC00FE00F409C
:00000001FF
