:02000000462890
:10000600831603139818092800000328831238085A
:040016009900080045
:0E001A008312031334088A00330882000800A2
:1000280083120313B701350884000008B6003608A8
:10003800003A031929283608B8000320B70A3708F8
:0C004800350784000008B6001B280800E3
:100054000D208A110A128000840AB30A0319B40A13
:08006400F003031D2A28080027
:10006C008316031398169030831298008316871703
:10007C00071383128C1E45281A08F0003F2808002D
:10008C00503083120313A0005230A1004F30A20055
:10009C004330A3004530A4005330A5004F30A600D8
:1000AC002030A7003130A8002030A9004930AA0028
:1000BC004E30AB004930AC004330AD004930AE009F
:1000CC004130AF004430B0004F30B100B2011930B4
:1000DC008316990018153620831686018312061490
:1000EC002030B50014200630FB001330FC00AD307E
:1000FC00FD00FD0B7F28FC0B7F28FB0B7F280000ED
:10010C00000006100630FB001330FC00AD30FD0083
:10011C00FD0B8E28FC0B8E28FB0B8E28000000009C
:04012C007428972874
:02400E00492F38
:00000001FF
